{
  "contractName": "CreditScore",
  "abi": [
    {
      "constant": true,
      "inputs": [
        {
          "name": "",
          "type": "string"
        }
      ],
      "name": "users",
      "outputs": [
        {
          "name": "name",
          "type": "string"
        },
        {
          "name": "score",
          "type": "uint256"
        },
        {
          "name": "lastUpdate",
          "type": "uint256"
        }
      ],
      "payable": false,
      "stateMutability": "view",
      "type": "function"
    },
    {
      "constant": false,
      "inputs": [
        {
          "name": "_id",
          "type": "string"
        },
        {
          "name": "_name",
          "type": "string"
        },
        {
          "name": "_score",
          "type": "uint256"
        }
      ],
      "name": "createUser",
      "outputs": [
        {
          "name": "",
          "type": "string"
        }
      ],
      "payable": false,
      "stateMutability": "nonpayable",
      "type": "function"
    },
    {
      "constant": true,
      "inputs": [
        {
          "name": "_id",
          "type": "string"
        }
      ],
      "name": "getUser",
      "outputs": [
        {
          "name": "",
          "type": "string"
        },
        {
          "name": "",
          "type": "uint256"
        },
        {
          "name": "",
          "type": "uint256"
        }
      ],
      "payable": false,
      "stateMutability": "view",
      "type": "function"
    }
  ],
  "bytecode": "0x608060405234801561001057600080fd5b506109a8806100206000396000f3fe608060405234801561001057600080fd5b50600436106100415760003560e01c806331feb67114610046578063689e1c0314610188578063d2cddda6146102ca575b600080fd5b6100ff6004803603602081101561005c57600080fd5b810190808035906020019064010000000081111561007957600080fd5b82018360208201111561008b57600080fd5b803590602001918460018302840111640100000000831117156100ad57600080fd5b91908080601f016020809104026020016040519081016040528093929190818152602001838380828437600081840152601f19601f82011690508083019250505050505050919291929050505061049f565b6040518080602001848152602001838152602001828103825285818151815260200191508051906020019080838360005b8381101561014b578082015181840152602081019050610130565b50505050905090810190601f1680156101785780820380516001836020036101000a031916815260200191505b5094505050505060405180910390f35b6102416004803603602081101561019e57600080fd5b81019080803590602001906401000000008111156101bb57600080fd5b8201836020820111156101cd57600080fd5b803590602001918460018302840111640100000000831117156101ef57600080fd5b91908080601f016020809104026020016040519081016040528093929190818152602001838380828437600081840152601f19601f820116905080830192505050505050509192919290505050610693565b6040518080602001848152602001838152602001828103825285818151815260200191508051906020019080838360005b8381101561028d578082015181840152602081019050610272565b50505050905090810190601f1680156102ba5780820380516001836020036101000a031916815260200191505b5094505050505060405180910390f35b610424600480360360608110156102e057600080fd5b81019080803590602001906401000000008111156102fd57600080fd5b82018360208201111561030f57600080fd5b8035906020019184600183028401116401000000008311171561033157600080fd5b91908080601f016020809104026020016040519081016040528093929190818152602001838380828437600081840152601f19601f8201169050808301925050505050505091929192908035906020019064010000000081111561039457600080fd5b8201836020820111156103a657600080fd5b803590602001918460018302840111640100000000831117156103c857600080fd5b91908080601f016020809104026020016040519081016040528093929190818152602001838380828437600081840152601f19601f8201169050808301925050505050505091929192908035906020019092919050505061076b565b6040518080602001828103825283818151815260200191508051906020019080838360005b83811015610464578082015181840152602081019050610449565b50505050905090810190601f1680156104915780820380516001836020036101000a031916815260200191505b509250505060405180910390f35b60606000806000846040518082805190602001908083835b602083106104da57805182526020820191506020810190506020830392506104b7565b6001836020036101000a03801982511681845116808217855250505050505090500191505090815260200160405180910390206000016000856040518082805190602001908083835b602083106105465780518252602082019150602081019050602083039250610523565b6001836020036101000a0380198251168184511680821785525050505050509050019150509081526020016040518091039020600101546000866040518082805190602001908083835b602083106105b35780518252602082019150602081019050602083039250610590565b6001836020036101000a038019825116818451168082178552505050505050905001915050908152602001604051809103902060020154828054600181600116156101000203166002900480601f01602080910402602001604051908101604052809291908181526020018280546001816001161561010002031660029004801561067f5780601f106106545761010080835404028352916020019161067f565b820191906000526020600020905b81548152906001019060200180831161066257829003601f168201915b505050505092509250925092509193909250565b600081805160208101820180518482526020830160208501208183528095505050505050600091509050806000018054600181600116156101000203166002900480601f0160208091040260200160405190810160405280929190818152602001828054600181600116156101000203166002900480156107555780601f1061072a57610100808354040283529160200191610755565b820191906000526020600020905b81548152906001019060200180831161073857829003601f168201915b5050505050908060010154908060020154905083565b6060826000856040518082805190602001908083835b602083106107a45780518252602082019150602081019050602083039250610781565b6001836020036101000a038019825116818451168082178552505050505050905001915050908152602001604051809103902060000190805190602001906107ed9291906108d7565b50816000856040518082805190602001908083835b602083106108255780518252602082019150602081019050602083039250610802565b6001836020036101000a038019825116818451168082178552505050505050905001915050908152602001604051809103902060010181905550426000856040518082805190602001908083835b602083106108965780518252602082019150602081019050602083039250610873565b6001836020036101000a0380198251168184511680821785525050505050509050019150509081526020016040518091039020600201819055509392505050565b828054600181600116156101000203166002900490600052602060002090601f016020900481019282601f1061091857805160ff1916838001178555610946565b82800160010185558215610946579182015b8281111561094557825182559160200191906001019061092a565b5b5090506109539190610957565b5090565b61097991905b8082111561097557600081600090555060010161095d565b5090565b9056fea165627a7a72305820a2272a81c17798c2a8ed0c6a20f524eca2ca9ade97c64536a1631760c2bc4aad0029",
  "source": "pragma solidity >=0.4.21 <0.6.0;\n\ncontract CreditScore {\n    struct User{\n        string name;\n        uint256 score;\n        uint256 lastUpdate;\n    }\n    mapping(string => User) public users;\n\n    // Create\n    function createUser(string memory _id, string memory _name, uint256 _score)public returns(string memory){\n        users[_id].name = _name;\n        users[_id].score = _score;\n        users[_id].lastUpdate = block.timestamp;\n    }\n    // Read\n    function getUser(string memory _id )public view returns(string memory, uint256, uint256){\n        return (users[_id].name, users[_id].score, users[_id].lastUpdate);\n    }\n}",
  "sourcePath": "/src/credit-score/contracts/CreditScore.sol",
  "compiler": {
    "name": "solc",
    "version": "0.5.8+commit.23d335f2.Emscripten.clang"
  },
  "schemaVersion": "3.0.11",
  "updatedAt": "2019-06-30T09:23:16.327Z",
  "devdoc": {
    "methods": {}
  },
  "userdoc": {
    "methods": {}
  }
}